:100000000C942A000C9447000C9447000C94470071
:100010000C9447000C9447000C9449000C94470042
:100020000C9447000C9447000C9447000C94470034
:100030000C9447000C9447000C9447000C94470024
:100040000C9447000C9447000C9447000C94470014
:100050000C94470011241FBECFE5D8E0DEBFCDBF12
:1000600010E0A0E6B0E0E8E8FAE002C005900D92EA
:10007000AA37B107D9F710E0AAE7B0E001C01D9296
:10008000AE37B107E1F70E946D000C9442050C9465
:1000900000001F920F920FB60F9211242F933F93DF
:1000A0008F939F9386B597B520917A0030917B000E
:1000B000821B930B90937D0080937C0086B597B54F
:1000C00090937B0080937A009F918F913F912F9125
:1000D0000F900FBE0F901F9018954F925F926F92E6
:1000E0007F928F929F92AF92BF92CF92DF92EF92C8
:1000F000FF920F931F93DF93CF93CDB7DEB7619736
:100100000FB6F894DEBF0FBECDBF8FEF87BB88BBA5
:100110000E94A50180E060E00E949C0180E88FBD04
:1001200081E08EBD1DBC1CBC80E289BF789480E656
:1001300090E00E94010220E030E0412C5AE5552E6B
:100140006E010894C11CD11C41E1642E712C9FE604
:10015000892E90E0992E84EEA82EB12CE0907C00A0
:10016000F0907D000DC0F2013197F1F701968A30D1
:100170009105C8F388B3805888BBE216F30619F4DA
:1001800080E090E0F4CF81E060E00E94DD018DB777
:100190009EB70A970FB6F8949EBF0FBE8DBF0DB7DE
:1001A0001EB70F5F1F4FEDB7FEB7D282C182F801B5
:1001B000738262829582848260917C0070917D005E
:1001C00080E090E020E137E240E050E00E941C0235
:1001D00020E030E940E050E00E943B02F801378324
:1001E0002683B186A0860E945D028DB79EB70A96CF
:1001F0000FB6F8949EBF0FBE8DBFC6010E940102CC
:100200009701ACCF8150F0F7089581509040E8F706
:1002100008958AB38E608ABB8AB38F708ABB8BB312
:10022000846F8BBBDB9882E08150F0F7D99A81E034
:100230008150F0F799B3907FD99882E08150F0F720
:10024000D99A81E08150F0F789B3D99882958F705F
:10025000892B08958AB38E608ABB8AB38F708ABB5C
:100260008BB38C6F8BBB82E08150F0F7D99A81E021
:100270008150F0F799B3907FD99882E08150F0F7E0
:10028000D99A81E08150F0F789B3D99882958F701F
:10029000892B08950E94090187FDFCCF089582E013
:1002A0008150F0F7D99A81E08150F0F7D9980895FC
:1002B0001F93182F0E944A018AB38E6F8ABB8BB39B
:1002C00081708BBB9BB3812F807F892B8BBB0E945E
:1002D0004F018BB381708BBB8BB31295107F812B39
:1002E0008BBB0E944F011F9108951F93182F0E94EE
:1002F0004A018AB38E6F8ABB8BB381708BBB8BB381
:100300008860912F907F892B8BBB0E944F018BB30C
:1003100081708BBB8BB388601295107F812B8BBB58
:100320000E944F011F91089581E00E945801089595
:1003300082E00E9458010895882311F48CE001C0E6
:100340008EE0860F0E94580108958AB38E6F8ABB93
:1003500080E096E381509040E8F78BB381708BBBCF
:100360008BB380638BBB0E944F0182EC9EE0815077
:100370009040E8F70E944F018CE590E0815090405A
:10038000E8F70E944F018CE590E081509040E8F73B
:10039000DC980E944F018CE590E081509040E8F796
:1003A00088E20E94580186E00E9458010E94940150
:1003B00081E061E00E949C010895823060F4603128
:1003C00050F490E0029626E0880F991F2A95E1F7F5
:1003D000860F0E94580108950E944A010E94090157
:1003E00090E036E0969587953A95E1F7817008950B
:1003F0000E944A010E9409018F7308950E947501AD
:100400000895CF93DF93EC0103C021960E947501FC
:1004100088818823D1F7DF91CF910895CF93DF931F
:10042000EC0102C00E947501FE012196849188238F
:10043000C9F7DF91CF910895629FD001739FF001BA
:10044000829FE00DF11D649FE00DF11D929FF00D64
:10045000839FF00D749FF00D659FF00D9927729F9B
:10046000B00DE11DF91F639FB00DE11DF91FBD0126
:10047000CF0111240895A1E21A2EAA1BBB1BFD0176
:100480000DC0AA1FBB1FEE1FFF1FA217B307E40773
:10049000F50720F0A21BB30BE40BF50B661F771FCB
:1004A000881F991F1A9469F76095709580959095AB
:1004B0009B01AC01BD01CF010895AEE0B0E0E3E6E1
:1004C000F2E00C9419050D891E898F89988D97FF8C
:1004D00002C080E090E801979E838D831A83098390
:1004E00086E08C839E01255E3F4FCE010196698D8B
:1004F0007A8DA9010E948E024D815E8157FD0AC04E
:100500002F813885421753070CF49A01020F131FED
:10051000F80110822E96E4E00C943505ABE0B0E0D3
:10052000E4E9F2E00C940B053C012B015A01FC01BB
:1005300017821682838181FD03C06FEF7FEFC6C1F2
:100540009AE0892E1E010894211C311CF30123819D
:10055000F20123FD859123FF81912F01882309F466
:10056000B2C1853239F423FD859123FF81912F019A
:10057000853229F490E0B3010E948104E7CF982FDF
:10058000FF24EE249924FFE1FF15D0F09B3269F09F
:100590009C3228F4903259F0933291F40EC09D327F
:1005A00049F0903369F441E024C052E0F52A84E038
:1005B000F82A28C098E0F92A25C0E0E1FE2A22C0E6
:1005C000F7FC29C0892F80538A3070F4F6FE05C0ED
:1005D000989C902C1124980E15C0E89CE02C1124B6
:1005E000E80EF0E2FF2A0EC09E3229F4F6FC6BC141
:1005F00040E4F42A07C09C3619F450E8F52A02C0FA
:10060000983649F4F20123FD959123FF91912F0132
:10061000992309F0B8CF892F8554833018F0805280
:10062000833038F444E050E0A40EB51E5FE35983F4
:100630000FC0933631F0933779F0933509F056C0F7
:1006400020C0F5018081898342E050E0A40EB51EF0
:10065000610101E010E012C0F501C080D180F6FC1C
:1006600003C06FEF7FEF02C0692D70E042E050E001
:10067000A40EB51EC6010E9476048C015FE7F52228
:1006800014C0F501C080D180F6FC03C06FEF7FEF8E
:1006900002C0692D70E042E050E0A40EB51EC60114
:1006A0000E946B048C0150E8F52AF3FE07C01AC0C3
:1006B00080E290E0B3010E948104EA948E2D90E0E4
:1006C00008171907A8F30EC0F601F7FC8591F7FE8D
:1006D00081916F0190E0B3010E948104E110EA94DE
:1006E000015010400115110579F7EAC0943611F058
:1006F000993669F5F7FE08C0F50120813181428104
:10070000538184E090E00AC0F501808191819C01D1
:10071000442737FD4095542F82E090E0A80EB91E83
:100720009FE6F92257FF09C05095409530952195D5
:100730003F4F4F4F5F4FE0E8FE2ACA01B901A101C8
:100740002AE030E00E94AD04D82ED21840C0953780
:1007500029F41F2D1F7E2AE030E01DC01F2D197FB8
:100760009F3661F0903720F4983509F0ACC00FC087
:10077000903739F0983709F0A6C004C028E030E07F
:100780000AC0106114FD146020E130E004C014FDC3
:10079000166020E132E017FF08C0F5016081718129
:1007A0008281938144E050E008C0F501808191810D
:1007B000BC0180E090E042E050E0A40EB51EA10133
:1007C0000E94AD04D82ED2188FE7F82EF122F6FE43
:1007D0000BC05EEFF522D91438F4F4FE07C0F2FC2A
:1007E00005C08FEEF82202C01D2D01C0192DF4FEA8
:1007F0000DC0FE01ED0DF11D8081803319F499EEDD
:10080000F92208C01F5FF2FE05C003C08F2D867855
:1008100009F01F5F0F2DF3FC14C0F0FE0FC01E1572
:1008200010F09D2C0BC09D2C9E0C911A1E2D06C005
:1008300080E290E0B3010E9481041F5F1E15C0F3A7
:1008400004C01E1510F4E11A01C0EE2404FF0FC00D
:1008500080E390E0B3010E94810402FF1DC001FD0E
:1008600003C088E790E00EC088E590E00BC0802FC1
:10087000867891F001FF02C08BE201C080E2F7FCB4
:100880008DE290E0B3010E94810406C080E390E015
:10089000B3010E9481049A94D914C0F3DA94F1014F
:1008A000ED0DF11D808190E0B3010E948104DD20F7
:1008B000A9F706C080E290E0B3010E948104EA94A7
:1008C000EE20C1F743CEF30166817781CB012B96F1
:1008D000E2E10C942705FC01059061507040011085
:1008E000D8F7809590958E0F9F1F0895FC01615059
:1008F000704001900110D8F7809590958E0F9F1F42
:1009000008950F931F93CF93DF938C01EB018B819D
:1009100081FF1BC082FF0DC02E813F818C819D8194
:100920002817390764F4E881F9810193F983E88392
:1009300006C0E885F985802F0995892B31F48E81D1
:100940009F8101969F838E8302C00FEF1FEFC80126
:10095000DF91CF911F910F910895FA01AA272830B6
:1009600051F1203181F1E8946F936E7F6E5F7F4F7C
:100970008F4F9F4FAF4FB1E03ED0B4E03CD0670FF8
:10098000781F891F9A1FA11D680F791F8A1F911D4B
:10099000A11D6A0F711D811D911DA11D20D009F49B
:1009A00068943F912AE0269F11243019305D3193DD
:1009B000DEF6CF010895462F4770405D4193B3E0C6
:1009C0000FD0C9F7F6CF462F4F70405D4A3318F06D
:1009D000495D31FD4052419302D0A9F7EACFB4E01E
:1009E000A6959795879577956795BA95C9F70097D6
:1009F0006105710508959B01AC010A2E0694579577
:100A0000479537952795BA95C9F7620F731F841FCD
:100A1000951FA01D08952F923F924F925F926F9263
:100A20007F928F929F92AF92BF92CF92DF92EF927E
:100A3000FF920F931F93CF93DF93CDB7DEB7CA1BFF
:100A4000DB0B0FB6F894DEBF0FBECDBF09942A882A
:100A5000398848885F846E847D848C849B84AA84D2
:100A6000B984C884DF80EE80FD800C811B81AA815F
:100A7000B981CE0FD11D0FB6F894DEBF0FBECDBF2A
:080A8000ED010895F894FFCF89
:100A8800446520706572696F646574696A64006999
:0A0A980073202535752025637300D7
:00000001FF
